{
  "_format": "hh-sol-artifact-1",
  "contractName": "UserStorageData",
  "sourceName": "contracts/storeUserDetail.sol",
  "abi": [
    {
      "inputs": [
        {
          "internalType": "address",
          "name": "poolAddress",
          "type": "address"
        },
        {
          "internalType": "address",
          "name": "tokenAddress0",
          "type": "address"
        },
        {
          "internalType": "address",
          "name": "tokenAddress1",
          "type": "address"
        }
      ],
      "name": "addToBlockchain",
      "outputs": [],
      "stateMutability": "nonpayable",
      "type": "function"
    },
    {
      "inputs": [],
      "name": "getAllTransactions",
      "outputs": [
        {
          "components": [
            {
              "internalType": "address",
              "name": "caller",
              "type": "address"
            },
            {
              "internalType": "address",
              "name": "poolAddress",
              "type": "address"
            },
            {
              "internalType": "address",
              "name": "tokenAddress0",
              "type": "address"
            },
            {
              "internalType": "address",
              "name": "tokenAddress1",
              "type": "address"
            }
          ],
          "internalType": "struct UserStorageData.TransactionStruck[]",
          "name": "",
          "type": "tuple[]"
        }
      ],
      "stateMutability": "view",
      "type": "function"
    }
  ],
  "bytecode": "0x608060405234801561001057600080fd5b50610366806100206000396000f3fe608060405234801561001057600080fd5b50600436106100365760003560e01c806327506f531461003b578063890cb4e914610059575b600080fd5b6100436101a3565b6040516100509190610243565b60405180910390f35b6101a16100673660046102ed565b6040805160808101825233815273ffffffffffffffffffffffffffffffffffffffff948516602082019081529385169181019182529184166060830190815260008054600181018255908052925160049093027f290decd9548b62a8d60345a988386fc84ba6bc95484008f6362f93160ef3e563810180549487167fffffffffffffffffffffffff000000000000000000000000000000000000000095861617905593517f290decd9548b62a8d60345a988386fc84ba6bc95484008f6362f93160ef3e5648501805491871691851691909117905590517f290decd9548b62a8d60345a988386fc84ba6bc95484008f6362f93160ef3e56584018054918616918416919091179055517f290decd9548b62a8d60345a988386fc84ba6bc95484008f6362f93160ef3e5669092018054929093169116179055565b005b60606000805480602002602001604051908101604052809291908181526020016000905b8282101561023a5760008481526020908190206040805160808101825260048602909201805473ffffffffffffffffffffffffffffffffffffffff9081168452600180830154821685870152600283015482169385019390935260039091015416606083015290835290920191016101c7565b50505050905090565b602080825282518282018190526000919060409081850190868401855b828110156102b7578151805173ffffffffffffffffffffffffffffffffffffffff90811686528782015181168887015286820151811687870152606091820151169085015260809093019290850190600101610260565b5091979650505050505050565b803573ffffffffffffffffffffffffffffffffffffffff811681146102e857600080fd5b919050565b60008060006060848603121561030257600080fd5b61030b846102c4565b9250610319602085016102c4565b9150610327604085016102c4565b9050925092509256fea26469706673582212203895e365d368359dc4921323bbac6c621869f558a5adc6458dc5ad0e07d43d8a64736f6c634300080f0033",
  "linkReferences": {},
  "deployedLinkReferences": {}
}